S012000070726F6A656374312E632E7372656359
S11300000C942A000C9447000C9447000C9447006D
S11300100C9447000C9447000C9447000C94470040
S11300200C9447000C9447000C9447000C94470030
S11300300C9447000C9447000C9447000C94470020
S11300400C9447000C9447000C9447000C94470010
S11300500C94470011241FBECFE5D4E0DEBFCDBF12
S113006010E0A0E6B0E0EEE4F4E002C005900D92EA
S1130070A83DB107D9F710E0A8EDB0E001C01D928A
S1130080A83DB107E1F70E9484000C9425020C946A
S1130090000085BBDC98DE9A8FE097E20197F1F7C8
S11300A000C00000DE988FE097E20197F1F700C0EE
S11300B00000089585BBDC9ADE9A8FE097E20197F1
S11300C0F1F700C00000DE988FE097E20197F1F7A6
S11300D000C00000089588E30E9449008EE00E9459
S11300E0490086E00E9449000895CF93DF93EC0114
S11300F08881882331F021960E945A0089918823AF
S1130100D9F7DF91CF9108952F923F924F925F924A
S11301106F927F928F929F92AF92BF92CF92DF9213
S1130120EF92FF920F931F93CF93DF93CDB7DEB778
S11301302C970FB6F894DEBF0FBECDBF8FEF84BBF4
S11301408ABB87E081BB0E946B0082E80E94490061
S113015080E690E00E94750081EC0E9449008AE6E6
S113016090E00E9475008FEF99E6A8E181509040DD
S1130170A040E1F700C0000081E00E94490081E84E
S11301800E94490087E790E00E94750081EC0E947C
S1130190490082E890E00E9475008FEF94E3ACE0A0
S11301A081509040A040E1F700C0000081E00E942F
S11301B04900DE011196E2EDF0E085E001900D9238
S11301C08150E1F70F2EF3E06F2EF02D4424439479
S11301D00F2EF6E0EF2EFF24F02DEC0EFD1E0F2E59
S11301E0F1E35F2EF02DB42CEB86FC86CDC0B2BAC1
S11301F0839B0AC08AE20E945A00F701E00FF11FB4
S113020050820F5F1F4F19C0849B0BC08AE20E946B
S11302105A00F701E00FF11F94E390830F5F1F4F23
S11302200CC0859B0AC08AE20E945A00F701E00FC5
S1130230F11FA7E3A0830F5F1F4F8FEF90E7A2E0AA
S113024081509040A040E1F700C00000D2BA839BE7
S11302500AC08AE20E945A00F701E00FF11FA0824F
S11302600F5F1F4F17C0849B0AC08AE20E945A0086
S1130270F701E00FF11F80820F5F1F4F0BC0859BBA
S113028009C08AE20E945A00F701E00FF11F308290
S11302900F5F1F4F8FEF90E7A2E081509040A04086
S11302A0E1F700C00000C2BA839B0AC08AE20E9440
S11302B05A00F701E00FF11F90820F5F1F4F17C024
S11302C0849B0AC08AE20E945A00F701E00FF11FE2
S11302D070820F5F1F4F0BC0859B09C08AE20E948A
S11302E05A00F701E00FF11F20820F5F1F4F8FEFBD
S11302F090E7A2E081509040A040E1F700C00000E8
S1130300043011050CF473CF842D0E944900CE01F2
S113031001966B857C850E941C02282F392F21159C
S1130320310581F48BE890E00E9475008FEF94E32F
S1130330ACE081509040A040E1F700C000008AE0AA
S11303408BBB1DC08CE990E00E9475008FEF93EC8D
S1130350A9E081509040A040E1F700C00000842D46
S11303600E9449008BEA90E00E9475008FEF93ECA5
S1130370A9E081509040A040E1F700C00000842D26
S11303800E9449006A9409F100E010E0DD246894B9
S1130390D1F80F2EF8E33F2EF02D0F2EF5E38F2E1C
S11303A0F02D0F2EF2E3AF2EF02DCC246894C2F87A
S11303B00F2EF9E32F2EF02D0F2EF6E37F2EF02DC6
S11303C00F2EF3E39F2EF02D12CF0E946B0082E8D4
S11303D00E9449008CEB90E00E94750082EC0E9420
S11303E0490088EC90E00E9475008FEF99E6A8E13F
S11303F081509040A040E1F700C0000081E00E94DD
S1130400490080E090E02C960FB6F894DEBF0FBE52
S1130410CDBFDF91CF911F910F91FF90EF90DF90AF
S1130420CF90BF90AF909F908F907F906F905F9090
S11304304F903F902F900895FB01DC018D91019026
S111044080190110D9F3990B0895F894FFCF99
S113044E444F4F52204C4F434B004241534544209E
S113045E53595354454D00454E5445522054484526
S113046E200050415353574F524400636F727265CC
S113047E63742070617373776F72640057524F4EBA
S113048E472050415353574F524400726577726957
S113049E74652070617373776F7264007265747221
S11304AE7920616674657200736F6D652074696D71
S10B04BE650031323334000003
S9030000FC
